{
  "_format": "hh-sol-artifact-1",
  "contractName": "Vote",
  "sourceName": "contracts/Vote.sol",
  "abi": [
    {
      "inputs": [],
      "stateMutability": "nonpayable",
      "type": "constructor"
    },
    {
      "inputs": [
        {
          "internalType": "uint256",
          "name": "_contestantId",
          "type": "uint256"
        },
        {
          "internalType": "address",
          "name": "_voterAddress",
          "type": "address"
        }
      ],
      "name": "castVote",
      "outputs": [],
      "stateMutability": "nonpayable",
      "type": "function"
    },
    {
      "inputs": [
        {
          "internalType": "uint256",
          "name": "",
          "type": "uint256"
        }
      ],
      "name": "contestants",
      "outputs": [
        {
          "internalType": "string",
          "name": "name",
          "type": "string"
        },
        {
          "internalType": "string",
          "name": "platform",
          "type": "string"
        },
        {
          "internalType": "uint256",
          "name": "voteCount",
          "type": "uint256"
        },
        {
          "internalType": "uint256",
          "name": "contestantId",
          "type": "uint256"
        },
        {
          "internalType": "uint256",
          "name": "stateCode",
          "type": "uint256"
        },
        {
          "internalType": "uint256",
          "name": "constituencyCode",
          "type": "uint256"
        },
        {
          "internalType": "uint256",
          "name": "electionID",
          "type": "uint256"
        }
      ],
      "stateMutability": "view",
      "type": "function"
    },
    {
      "inputs": [
        {
          "internalType": "string",
          "name": "",
          "type": "string"
        }
      ],
      "name": "electionNames",
      "outputs": [
        {
          "internalType": "uint256",
          "name": "",
          "type": "uint256"
        }
      ],
      "stateMutability": "view",
      "type": "function"
    },
    {
      "inputs": [
        {
          "internalType": "uint256",
          "name": "",
          "type": "uint256"
        }
      ],
      "name": "elections",
      "outputs": [
        {
          "internalType": "string",
          "name": "electionName",
          "type": "string"
        },
        {
          "internalType": "uint256",
          "name": "electionDate",
          "type": "uint256"
        },
        {
          "internalType": "uint256",
          "name": "startTime",
          "type": "uint256"
        },
        {
          "internalType": "uint256",
          "name": "endTime",
          "type": "uint256"
        },
        {
          "internalType": "uint256",
          "name": "electionId",
          "type": "uint256"
        }
      ],
      "stateMutability": "view",
      "type": "function"
    },
    {
      "inputs": [
        {
          "internalType": "uint256",
          "name": "",
          "type": "uint256"
        }
      ],
      "name": "filteredContestants",
      "outputs": [
        {
          "internalType": "string",
          "name": "name",
          "type": "string"
        },
        {
          "internalType": "string",
          "name": "platform",
          "type": "string"
        },
        {
          "internalType": "uint256",
          "name": "voteCount",
          "type": "uint256"
        },
        {
          "internalType": "uint256",
          "name": "contestantId",
          "type": "uint256"
        },
        {
          "internalType": "uint256",
          "name": "stateCode",
          "type": "uint256"
        },
        {
          "internalType": "uint256",
          "name": "constituencyCode",
          "type": "uint256"
        },
        {
          "internalType": "uint256",
          "name": "electionID",
          "type": "uint256"
        }
      ],
      "stateMutability": "view",
      "type": "function"
    },
    {
      "inputs": [],
      "name": "getAllContestants",
      "outputs": [
        {
          "components": [
            {
              "internalType": "string",
              "name": "name",
              "type": "string"
            },
            {
              "internalType": "string",
              "name": "platform",
              "type": "string"
            },
            {
              "internalType": "uint256",
              "name": "voteCount",
              "type": "uint256"
            },
            {
              "internalType": "uint256",
              "name": "contestantId",
              "type": "uint256"
            },
            {
              "internalType": "uint256",
              "name": "stateCode",
              "type": "uint256"
            },
            {
              "internalType": "uint256",
              "name": "constituencyCode",
              "type": "uint256"
            },
            {
              "internalType": "uint256",
              "name": "electionID",
              "type": "uint256"
            }
          ],
          "internalType": "struct Vote.Contestant[]",
          "name": "",
          "type": "tuple[]"
        }
      ],
      "stateMutability": "view",
      "type": "function"
    },
    {
      "inputs": [],
      "name": "getAllElections",
      "outputs": [
        {
          "components": [
            {
              "internalType": "string",
              "name": "electionName",
              "type": "string"
            },
            {
              "internalType": "uint256",
              "name": "electionDate",
              "type": "uint256"
            },
            {
              "internalType": "uint256",
              "name": "startTime",
              "type": "uint256"
            },
            {
              "internalType": "uint256",
              "name": "endTime",
              "type": "uint256"
            },
            {
              "internalType": "uint256",
              "name": "electionId",
              "type": "uint256"
            }
          ],
          "internalType": "struct Vote.Election[]",
          "name": "",
          "type": "tuple[]"
        }
      ],
      "stateMutability": "view",
      "type": "function"
    },
    {
      "inputs": [
        {
          "internalType": "uint256",
          "name": "_contestantId",
          "type": "uint256"
        }
      ],
      "name": "getContestantInfo",
      "outputs": [
        {
          "internalType": "string",
          "name": "",
          "type": "string"
        },
        {
          "internalType": "string",
          "name": "",
          "type": "string"
        },
        {
          "internalType": "uint256",
          "name": "",
          "type": "uint256"
        },
        {
          "internalType": "uint256",
          "name": "",
          "type": "uint256"
        },
        {
          "internalType": "uint256",
          "name": "",
          "type": "uint256"
        },
        {
          "internalType": "uint256",
          "name": "",
          "type": "uint256"
        }
      ],
      "stateMutability": "view",
      "type": "function"
    },
    {
      "inputs": [],
      "name": "getElectionNames",
      "outputs": [
        {
          "internalType": "string[]",
          "name": "",
          "type": "string[]"
        }
      ],
      "stateMutability": "view",
      "type": "function"
    },
    {
      "inputs": [],
      "name": "getElectionScore",
      "outputs": [
        {
          "components": [
            {
              "internalType": "string",
              "name": "name",
              "type": "string"
            },
            {
              "internalType": "string",
              "name": "platform",
              "type": "string"
            },
            {
              "internalType": "uint256",
              "name": "voteCount",
              "type": "uint256"
            },
            {
              "internalType": "uint256",
              "name": "contestantId",
              "type": "uint256"
            },
            {
              "internalType": "uint256",
              "name": "stateCode",
              "type": "uint256"
            },
            {
              "internalType": "uint256",
              "name": "constituencyCode",
              "type": "uint256"
            }
          ],
          "internalType": "struct Vote.ElectionScore[]",
          "name": "",
          "type": "tuple[]"
        }
      ],
      "stateMutability": "view",
      "type": "function"
    },
    {
      "inputs": [],
      "name": "getNumOfVoters",
      "outputs": [
        {
          "internalType": "uint256",
          "name": "",
          "type": "uint256"
        }
      ],
      "stateMutability": "view",
      "type": "function"
    },
    {
      "inputs": [],
      "name": "getRegistrar",
      "outputs": [
        {
          "internalType": "address",
          "name": "",
          "type": "address"
        }
      ],
      "stateMutability": "view",
      "type": "function"
    },
    {
      "inputs": [
        {
          "internalType": "address",
          "name": "_voterAddress",
          "type": "address"
        }
      ],
      "name": "getVoterInfo",
      "outputs": [
        {
          "components": [
            {
              "internalType": "string",
              "name": "name",
              "type": "string"
            },
            {
              "internalType": "uint256",
              "name": "age",
              "type": "uint256"
            },
            {
              "internalType": "uint256",
              "name": "stateCode",
              "type": "uint256"
            },
            {
              "internalType": "uint256",
              "name": "voterIdNumber",
              "type": "uint256"
            },
            {
              "internalType": "uint256",
              "name": "constituencyCode",
              "type": "uint256"
            },
            {
              "internalType": "address",
              "name": "voterAddress",
              "type": "address"
            },
            {
              "internalType": "uint256",
              "name": "voted",
              "type": "uint256"
            }
          ],
          "internalType": "struct Vote.Voter",
          "name": "",
          "type": "tuple"
        }
      ],
      "stateMutability": "view",
      "type": "function"
    },
    {
      "inputs": [
        {
          "internalType": "string",
          "name": "_name",
          "type": "string"
        },
        {
          "internalType": "string",
          "name": "_platform",
          "type": "string"
        },
        {
          "internalType": "uint256",
          "name": "_stateCode",
          "type": "uint256"
        },
        {
          "internalType": "uint256",
          "name": "_constituencyCode",
          "type": "uint256"
        },
        {
          "internalType": "uint256",
          "name": "_electionID",
          "type": "uint256"
        }
      ],
      "name": "registerContestant",
      "outputs": [],
      "stateMutability": "nonpayable",
      "type": "function"
    },
    {
      "inputs": [
        {
          "internalType": "string",
          "name": "_electionName",
          "type": "string"
        },
        {
          "internalType": "uint256",
          "name": "_electionDate",
          "type": "uint256"
        },
        {
          "internalType": "uint256",
          "name": "_startTime",
          "type": "uint256"
        },
        {
          "internalType": "uint256",
          "name": "_endTime",
          "type": "uint256"
        }
      ],
      "name": "registerElection",
      "outputs": [],
      "stateMutability": "nonpayable",
      "type": "function"
    },
    {
      "inputs": [
        {
          "internalType": "string",
          "name": "_name",
          "type": "string"
        },
        {
          "internalType": "uint256",
          "name": "_age",
          "type": "uint256"
        },
        {
          "internalType": "uint256",
          "name": "_stateCode",
          "type": "uint256"
        },
        {
          "internalType": "uint256",
          "name": "_voterIdNumber",
          "type": "uint256"
        },
        {
          "internalType": "uint256",
          "name": "_constituencyCode",
          "type": "uint256"
        },
        {
          "internalType": "address",
          "name": "_voterAddress",
          "type": "address"
        }
      ],
      "name": "registerVoter",
      "outputs": [],
      "stateMutability": "nonpayable",
      "type": "function"
    },
    {
      "inputs": [
        {
          "internalType": "address",
          "name": "",
          "type": "address"
        }
      ],
      "name": "voters",
      "outputs": [
        {
          "internalType": "string",
          "name": "name",
          "type": "string"
        },
        {
          "internalType": "uint256",
          "name": "age",
          "type": "uint256"
        },
        {
          "internalType": "uint256",
          "name": "stateCode",
          "type": "uint256"
        },
        {
          "internalType": "uint256",
          "name": "voterIdNumber",
          "type": "uint256"
        },
        {
          "internalType": "uint256",
          "name": "constituencyCode",
          "type": "uint256"
        },
        {
          "internalType": "address",
          "name": "voterAddress",
          "type": "address"
        },
        {
          "internalType": "uint256",
          "name": "voted",
          "type": "uint256"
        }
      ],
      "stateMutability": "view",
      "type": "function"
    }
  ],
  "bytecode": "0x608060405234801561001057600080fd5b5033600c60006101000a81548173ffffffffffffffffffffffffffffffffffffffff021916908373ffffffffffffffffffffffffffffffffffffffff160217905550612dd7806100616000396000f3fe608060405234801561001057600080fd5b506004361061010b5760003560e01c80639ed1f255116100a2578063a5fe0d1511610071578063a5fe0d15146102f5578063bc0a5b0514610311578063c56bfe9c1461032f578063dfd50f521461034b578063e220cde5146103815761010b565b80639ed1f2551461023e578063a13b84741461026e578063a3ec138d146102a3578063a57c713f146102d95761010b565b806365fc783c116100de57806365fc783c146101c857806377df41b7146101e6578063782e8256146102025780637fd5f268146102205761010b565b806322bb1ae0146101105780634d3f7334146101465780635e6fef01146101645780635ede17e514610198575b600080fd5b61012a60048036038101906101259190611a34565b61039f565b60405161013d9796959493929190611b00565b60405180910390f35b61014e610501565b60405161015b9190611bbe565b60405180910390f35b61017e60048036038101906101799190611a34565b61052b565b60405161018f959493929190611bd9565b60405180910390f35b6101b260048036038101906101ad9190611d68565b6105f9565b6040516101bf9190611db1565b60405180910390f35b6101d0610627565b6040516101dd9190611db1565b60405180910390f35b61020060048036038101906101fb9190611df8565b610631565b005b61020a610891565b6040516102179190611fe3565b60405180910390f35b610228610aee565b604051610235919061213d565b60405180910390f35b6102586004803603810190610253919061215f565b610c07565b6040516102659190612237565b60405180910390f35b61028860048036038101906102839190611a34565b610d80565b60405161029a96959493929190612259565b60405180910390f35b6102bd60048036038101906102b8919061215f565b610ee9565b6040516102d097969594939291906122c8565b60405180910390f35b6102f360048036038101906102ee919061233e565b610fd3565b005b61030f600480360381019061030a91906123c1565b61114f565b005b610319611325565b60405161032691906125cf565b60405180910390f35b610349600480360381019061034491906125f1565b6114da565b005b61036560048036038101906103609190611a34565b6116bf565b6040516103789796959493929190611b00565b60405180910390f35b610389611811565b6040516103969190612766565b60405180910390f35b600281815481106103af57600080fd5b90600052602060002090600702016000915090508060000180546103d2906127b7565b80601f01602080910402602001604051908101604052809291908181526020018280546103fe906127b7565b801561044b5780601f106104205761010080835404028352916020019161044b565b820191906000526020600020905b81548152906001019060200180831161042e57829003601f168201915b505050505090806001018054610460906127b7565b80601f016020809104026020016040519081016040528092919081815260200182805461048c906127b7565b80156104d95780601f106104ae576101008083540402835291602001916104d9565b820191906000526020600020905b8154815290600101906020018083116104bc57829003601f168201915b5050505050908060020154908060030154908060040154908060050154908060060154905087565b6000600c60009054906101000a900473ffffffffffffffffffffffffffffffffffffffff16905090565b6009818154811061053b57600080fd5b906000526020600020906005020160009150905080600001805461055e906127b7565b80601f016020809104026020016040519081016040528092919081815260200182805461058a906127b7565b80156105d75780601f106105ac576101008083540402835291602001916105d7565b820191906000526020600020905b8154815290600101906020018083116105ba57829003601f168201915b5050505050908060010154908060020154908060030154908060040154905085565b6008818051602081018201805184825260208301602085012081835280955050505050506000915090505481565b6000600754905090565b6000600660008373ffffffffffffffffffffffffffffffffffffffff1673ffffffffffffffffffffffffffffffffffffffff16815260200190815260200160002060030154036106b6576040517f08c379a00000000000000000000000000000000000000000000000000000000081526004016106ad90612834565b60405180910390fd5b6000600660008373ffffffffffffffffffffffffffffffffffffffff1673ffffffffffffffffffffffffffffffffffffffff168152602001908152602001600020600601541461073b576040517f08c379a0000000000000000000000000000000000000000000000000000000008152600401610732906128a0565b60405180910390fd5b600080600084815260200190815260200160002090508060050154600660008473ffffffffffffffffffffffffffffffffffffffff1673ffffffffffffffffffffffffffffffffffffffff168152602001908152602001600020600401541480156107eb57508060040154600660008473ffffffffffffffffffffffffffffffffffffffff1673ffffffffffffffffffffffffffffffffffffffff16815260200190815260200160002060020154145b61082a576040517f08c379a000000000000000000000000000000000000000000000000000000000815260040161082190612932565b60405180910390fd5b80600201600081548092919061083f90612981565b91905055506001600660008473ffffffffffffffffffffffffffffffffffffffff1673ffffffffffffffffffffffffffffffffffffffff16815260200190815260200160002060060181905550505050565b6060600060045467ffffffffffffffff8111156108b1576108b0611c3d565b5b6040519080825280602002602001820160405280156108ea57816020015b6108d7611961565b8152602001906001900390816108cf5790505b50905060005b600454811015610ae6576040518060c001604052806000808481526020019081526020016000206000018054610925906127b7565b80601f0160208091040260200160405190810160405280929190818152602001828054610951906127b7565b801561099e5780601f106109735761010080835404028352916020019161099e565b820191906000526020600020905b81548152906001019060200180831161098157829003601f168201915b5050505050815260200160008084815260200190815260200160002060010180546109c8906127b7565b80601f01602080910402602001604051908101604052809291908181526020018280546109f4906127b7565b8015610a415780601f10610a1657610100808354040283529160200191610a41565b820191906000526020600020905b815481529060010190602001808311610a2457829003601f168201915b5050505050815260200160008084815260200190815260200160002060020154815260200160008084815260200190815260200160002060030154815260200160008084815260200190815260200160002060040154815260200160008084815260200190815260200160002060050154815250828281518110610ac857610ac76129c9565b5b60200260200101819052508080610ade90612981565b9150506108f0565b508091505090565b60606009805480602002602001604051908101604052809291908181526020016000905b82821015610bfe57838290600052602060002090600502016040518060a0016040529081600082018054610b45906127b7565b80601f0160208091040260200160405190810160405280929190818152602001828054610b71906127b7565b8015610bbe5780601f10610b9357610100808354040283529160200191610bbe565b820191906000526020600020905b815481529060010190602001808311610ba157829003601f168201915b5050505050815260200160018201548152602001600282015481526020016003820154815260200160048201548152505081526020019060010190610b12565b50505050905090565b610c0f611997565b6000600660008473ffffffffffffffffffffffffffffffffffffffff1673ffffffffffffffffffffffffffffffffffffffff1681526020019081526020016000209050806040518060e0016040529081600082018054610c6e906127b7565b80601f0160208091040260200160405190810160405280929190818152602001828054610c9a906127b7565b8015610ce75780601f10610cbc57610100808354040283529160200191610ce7565b820191906000526020600020905b815481529060010190602001808311610cca57829003601f168201915b50505050508152602001600182015481526020016002820154815260200160038201548152602001600482015481526020016005820160009054906101000a900473ffffffffffffffffffffffffffffffffffffffff1673ffffffffffffffffffffffffffffffffffffffff1673ffffffffffffffffffffffffffffffffffffffff168152602001600682015481525050915050919050565b6060806000806000806000806000898152602001908152602001600020905080600001816001018260030154836004015484600501548560060154858054610dc7906127b7565b80601f0160208091040260200160405190810160405280929190818152602001828054610df3906127b7565b8015610e405780601f10610e1557610100808354040283529160200191610e40565b820191906000526020600020905b815481529060010190602001808311610e2357829003601f168201915b50505050509550848054610e53906127b7565b80601f0160208091040260200160405190810160405280929190818152602001828054610e7f906127b7565b8015610ecc5780601f10610ea157610100808354040283529160200191610ecc565b820191906000526020600020905b815481529060010190602001808311610eaf57829003601f168201915b505050505094509650965096509650965096505091939550919395565b6006602052806000526040600020600091509050806000018054610f0c906127b7565b80601f0160208091040260200160405190810160405280929190818152602001828054610f38906127b7565b8015610f855780601f10610f5a57610100808354040283529160200191610f85565b820191906000526020600020905b815481529060010190602001808311610f6857829003601f168201915b5050505050908060010154908060020154908060030154908060040154908060050160009054906101000a900473ffffffffffffffffffffffffffffffffffffffff16908060060154905087565b600c60009054906101000a900473ffffffffffffffffffffffffffffffffffffffff1673ffffffffffffffffffffffffffffffffffffffff163373ffffffffffffffffffffffffffffffffffffffff161461102d57600080fd5b600060088560405161103f9190612a34565b9081526020016040518091039020541461108e576040517f08c379a000000000000000000000000000000000000000000000000000000000815260040161108590612a97565b60405180910390fd5b600a54600b8190555060006040518060a00160405280868152602001858152602001848152602001838152602001600b548152509050600981908060018154018082558091505060019003906000526020600020906005020160009091909190915060008201518160000190816111059190612c63565b50602082015181600101556040820151816002015560608201518160030155608082015181600401555050600a600081548092919061114390612981565b91905055505050505050565b806000600660008373ffffffffffffffffffffffffffffffffffffffff1673ffffffffffffffffffffffffffffffffffffffff168152602001908152602001600020600301541461119f57600080fd5b60128610156111e3576040517f08c379a00000000000000000000000000000000000000000000000000000000081526004016111da90612d81565b60405180910390fd5b60006040518060e001604052808981526020018881526020018781526020018681526020018581526020018473ffffffffffffffffffffffffffffffffffffffff1681526020016000815250905080600660008573ffffffffffffffffffffffffffffffffffffffff1673ffffffffffffffffffffffffffffffffffffffff16815260200190815260200160002060008201518160000190816112869190612c63565b506020820151816001015560408201518160020155606082015181600301556080820151816004015560a08201518160050160006101000a81548173ffffffffffffffffffffffffffffffffffffffff021916908373ffffffffffffffffffffffffffffffffffffffff16021790555060c082015181600601559050506007600081548092919061131690612981565b91905055505050505050505050565b60606001805480602002602001604051908101604052809291908181526020016000905b828210156114d157838290600052602060002090600702016040518060e001604052908160008201805461137c906127b7565b80601f01602080910402602001604051908101604052809291908181526020018280546113a8906127b7565b80156113f55780601f106113ca576101008083540402835291602001916113f5565b820191906000526020600020905b8154815290600101906020018083116113d857829003601f168201915b5050505050815260200160018201805461140e906127b7565b80601f016020809104026020016040519081016040528092919081815260200182805461143a906127b7565b80156114875780601f1061145c57610100808354040283529160200191611487565b820191906000526020600020905b81548152906001019060200180831161146a57829003601f168201915b505050505081526020016002820154815260200160038201548152602001600482015481526020016005820154815260200160068201548152505081526020019060010190611349565b50505050905090565b6000806000600554815260200190815260200160002060030154146114fe57600080fd5b600c60009054906101000a900473ffffffffffffffffffffffffffffffffffffffff1673ffffffffffffffffffffffffffffffffffffffff163373ffffffffffffffffffffffffffffffffffffffff161461155857600080fd5b60045460058190555060006040518060e00160405280878152602001868152602001600081526020016005548152602001858152602001848152602001838152509050806000808360600151815260200190815260200160002060008201518160000190816115c79190612c63565b5060208201518160010190816115dd9190612c63565b5060408201518160020155606082015181600301556080820151816004015560a0820151816005015560c08201518160060155905050600181908060018154018082558091505060019003906000526020600020906007020160009091909190915060008201518160000190816116549190612c63565b50602082015181600101908161166a9190612c63565b5060408201518160020155606082015181600301556080820151816004015560a0820151816005015560c082015181600601555050600460008154809291906116b290612981565b9190505550505050505050565b60006020528060005260406000206000915090508060000180546116e2906127b7565b80601f016020809104026020016040519081016040528092919081815260200182805461170e906127b7565b801561175b5780601f106117305761010080835404028352916020019161175b565b820191906000526020600020905b81548152906001019060200180831161173e57829003601f168201915b505050505090806001018054611770906127b7565b80601f016020809104026020016040519081016040528092919081815260200182805461179c906127b7565b80156117e95780601f106117be576101008083540402835291602001916117e9565b820191906000526020600020905b8154815290600101906020018083116117cc57829003601f168201915b5050505050908060020154908060030154908060040154908060050154908060060154905087565b6060600060098054905067ffffffffffffffff81111561183457611833611c3d565b5b60405190808252806020026020018201604052801561186757816020015b60608152602001906001900390816118525790505b50905060005b600980549050811015611959576009818154811061188e5761188d6129c9565b5b906000526020600020906005020160000180546118aa906127b7565b80601f01602080910402602001604051908101604052809291908181526020018280546118d6906127b7565b80156119235780601f106118f857610100808354040283529160200191611923565b820191906000526020600020905b81548152906001019060200180831161190657829003601f168201915b505050505082828151811061193b5761193a6129c9565b5b6020026020010181905250808061195190612981565b91505061186d565b508091505090565b6040518060c001604052806060815260200160608152602001600081526020016000815260200160008152602001600081525090565b6040518060e001604052806060815260200160008152602001600081526020016000815260200160008152602001600073ffffffffffffffffffffffffffffffffffffffff168152602001600081525090565b6000604051905090565b600080fd5b600080fd5b6000819050919050565b611a11816119fe565b8114611a1c57600080fd5b50565b600081359050611a2e81611a08565b92915050565b600060208284031215611a4a57611a496119f4565b5b6000611a5884828501611a1f565b91505092915050565b600081519050919050565b600082825260208201905092915050565b60005b83811015611a9b578082015181840152602081019050611a80565b60008484015250505050565b6000601f19601f8301169050919050565b6000611ac382611a61565b611acd8185611a6c565b9350611add818560208601611a7d565b611ae681611aa7565b840191505092915050565b611afa816119fe565b82525050565b600060e0820190508181036000830152611b1a818a611ab8565b90508181036020830152611b2e8189611ab8565b9050611b3d6040830188611af1565b611b4a6060830187611af1565b611b576080830186611af1565b611b6460a0830185611af1565b611b7160c0830184611af1565b98975050505050505050565b600073ffffffffffffffffffffffffffffffffffffffff82169050919050565b6000611ba882611b7d565b9050919050565b611bb881611b9d565b82525050565b6000602082019050611bd36000830184611baf565b92915050565b600060a0820190508181036000830152611bf38188611ab8565b9050611c026020830187611af1565b611c0f6040830186611af1565b611c1c6060830185611af1565b611c296080830184611af1565b9695505050505050565b600080fd5b600080fd5b7f4e487b7100000000000000000000000000000000000000000000000000000000600052604160045260246000fd5b611c7582611aa7565b810181811067ffffffffffffffff82111715611c9457611c93611c3d565b5b80604052505050565b6000611ca76119ea565b9050611cb38282611c6c565b919050565b600067ffffffffffffffff821115611cd357611cd2611c3d565b5b611cdc82611aa7565b9050602081019050919050565b82818337600083830152505050565b6000611d0b611d0684611cb8565b611c9d565b905082815260208101848484011115611d2757611d26611c38565b5b611d32848285611ce9565b509392505050565b600082601f830112611d4f57611d4e611c33565b5b8135611d5f848260208601611cf8565b91505092915050565b600060208284031215611d7e57611d7d6119f4565b5b600082013567ffffffffffffffff811115611d9c57611d9b6119f9565b5b611da884828501611d3a565b91505092915050565b6000602082019050611dc66000830184611af1565b92915050565b611dd581611b9d565b8114611de057600080fd5b50565b600081359050611df281611dcc565b92915050565b60008060408385031215611e0f57611e0e6119f4565b5b6000611e1d85828601611a1f565b9250506020611e2e85828601611de3565b9150509250929050565b600081519050919050565b600082825260208201905092915050565b6000819050602082019050919050565b600082825260208201905092915050565b6000611e8082611a61565b611e8a8185611e64565b9350611e9a818560208601611a7d565b611ea381611aa7565b840191505092915050565b611eb7816119fe565b82525050565b600060c0830160008301518482036000860152611eda8282611e75565b91505060208301518482036020860152611ef48282611e75565b9150506040830151611f096040860182611eae565b506060830151611f1c6060860182611eae565b506080830151611f2f6080860182611eae565b5060a0830151611f4260a0860182611eae565b508091505092915050565b6000611f598383611ebd565b905092915050565b6000602082019050919050565b6000611f7982611e38565b611f838185611e43565b935083602082028501611f9585611e54565b8060005b85811015611fd15784840389528151611fb28582611f4d565b9450611fbd83611f61565b925060208a01995050600181019050611f99565b50829750879550505050505092915050565b60006020820190508181036000830152611ffd8184611f6e565b905092915050565b600081519050919050565b600082825260208201905092915050565b6000819050602082019050919050565b600060a083016000830151848203600086015261204e8282611e75565b91505060208301516120636020860182611eae565b5060408301516120766040860182611eae565b5060608301516120896060860182611eae565b50608083015161209c6080860182611eae565b508091505092915050565b60006120b38383612031565b905092915050565b6000602082019050919050565b60006120d382612005565b6120dd8185612010565b9350836020820285016120ef85612021565b8060005b8581101561212b578484038952815161210c85826120a7565b9450612117836120bb565b925060208a019950506001810190506120f3565b50829750879550505050505092915050565b6000602082019050818103600083015261215781846120c8565b905092915050565b600060208284031215612175576121746119f4565b5b600061218384828501611de3565b91505092915050565b61219581611b9d565b82525050565b600060e08301600083015184820360008601526121b88282611e75565b91505060208301516121cd6020860182611eae565b5060408301516121e06040860182611eae565b5060608301516121f36060860182611eae565b5060808301516122066080860182611eae565b5060a083015161221960a086018261218c565b5060c083015161222c60c0860182611eae565b508091505092915050565b60006020820190508181036000830152612251818461219b565b905092915050565b600060c08201905081810360008301526122738189611ab8565b905081810360208301526122878188611ab8565b90506122966040830187611af1565b6122a36060830186611af1565b6122b06080830185611af1565b6122bd60a0830184611af1565b979650505050505050565b600060e08201905081810360008301526122e2818a611ab8565b90506122f16020830189611af1565b6122fe6040830188611af1565b61230b6060830187611af1565b6123186080830186611af1565b61232560a0830185611baf565b61233260c0830184611af1565b98975050505050505050565b60008060008060808587031215612358576123576119f4565b5b600085013567ffffffffffffffff811115612376576123756119f9565b5b61238287828801611d3a565b945050602061239387828801611a1f565b93505060406123a487828801611a1f565b92505060606123b587828801611a1f565b91505092959194509250565b60008060008060008060c087890312156123de576123dd6119f4565b5b600087013567ffffffffffffffff8111156123fc576123fb6119f9565b5b61240889828a01611d3a565b965050602061241989828a01611a1f565b955050604061242a89828a01611a1f565b945050606061243b89828a01611a1f565b935050608061244c89828a01611a1f565b92505060a061245d89828a01611de3565b9150509295509295509295565b600081519050919050565b600082825260208201905092915050565b6000819050602082019050919050565b600060e08301600083015184820360008601526124b38282611e75565b915050602083015184820360208601526124cd8282611e75565b91505060408301516124e26040860182611eae565b5060608301516124f56060860182611eae565b5060808301516125086080860182611eae565b5060a083015161251b60a0860182611eae565b5060c083015161252e60c0860182611eae565b508091505092915050565b60006125458383612496565b905092915050565b6000602082019050919050565b60006125658261246a565b61256f8185612475565b93508360208202850161258185612486565b8060005b858110156125bd578484038952815161259e8582612539565b94506125a98361254d565b925060208a01995050600181019050612585565b50829750879550505050505092915050565b600060208201905081810360008301526125e9818461255a565b905092915050565b600080600080600060a0868803121561260d5761260c6119f4565b5b600086013567ffffffffffffffff81111561262b5761262a6119f9565b5b61263788828901611d3a565b955050602086013567ffffffffffffffff811115612658576126576119f9565b5b61266488828901611d3a565b945050604061267588828901611a1f565b935050606061268688828901611a1f565b925050608061269788828901611a1f565b9150509295509295909350565b600081519050919050565b600082825260208201905092915050565b6000819050602082019050919050565b60006126dc8383611e75565b905092915050565b6000602082019050919050565b60006126fc826126a4565b61270681856126af565b935083602082028501612718856126c0565b8060005b85811015612754578484038952815161273585826126d0565b9450612740836126e4565b925060208a0199505060018101905061271c565b50829750879550505050505092915050565b6000602082019050818103600083015261278081846126f1565b905092915050565b7f4e487b7100000000000000000000000000000000000000000000000000000000600052602260045260246000fd5b600060028204905060018216806127cf57607f821691505b6020821081036127e2576127e1612788565b5b50919050565b7f566f746572206973206e6f742072656769737465726564000000000000000000600082015250565b600061281e601783611a6c565b9150612829826127e8565b602082019050919050565b6000602082019050818103600083015261284d81612811565b9050919050565b7f566f7465722068617320616c726561647920766f746564000000000000000000600082015250565b600061288a601783611a6c565b915061289582612854565b602082019050919050565b600060208201905081810360008301526128b98161287d565b9050919050565b7f566f746572206973206e6f7420656c696769626c6520746f20766f746520696e60008201527f207468697320636f6e7374697475656e63790000000000000000000000000000602082015250565b600061291c603283611a6c565b9150612927826128c0565b604082019050919050565b6000602082019050818103600083015261294b8161290f565b9050919050565b7f4e487b7100000000000000000000000000000000000000000000000000000000600052601160045260246000fd5b600061298c826119fe565b91507fffffffffffffffffffffffffffffffffffffffffffffffffffffffffffffffff82036129be576129bd612952565b5b600182019050919050565b7f4e487b7100000000000000000000000000000000000000000000000000000000600052603260045260246000fd5b600081905092915050565b6000612a0e82611a61565b612a1881856129f8565b9350612a28818560208601611a7d565b80840191505092915050565b6000612a408284612a03565b915081905092915050565b7f456c656374696f6e20616c726561647920726567697374657265640000000000600082015250565b6000612a81601b83611a6c565b9150612a8c82612a4b565b602082019050919050565b60006020820190508181036000830152612ab081612a74565b9050919050565b60008190508160005260206000209050919050565b60006020601f8301049050919050565b600082821b905092915050565b600060088302612b197fffffffffffffffffffffffffffffffffffffffffffffffffffffffffffffffff82612adc565b612b238683612adc565b95508019841693508086168417925050509392505050565b6000819050919050565b6000612b60612b5b612b56846119fe565b612b3b565b6119fe565b9050919050565b6000819050919050565b612b7a83612b45565b612b8e612b8682612b67565b848454612ae9565b825550505050565b600090565b612ba3612b96565b612bae818484612b71565b505050565b5b81811015612bd257612bc7600082612b9b565b600181019050612bb4565b5050565b601f821115612c1757612be881612ab7565b612bf184612acc565b81016020851015612c00578190505b612c14612c0c85612acc565b830182612bb3565b50505b505050565b600082821c905092915050565b6000612c3a60001984600802612c1c565b1980831691505092915050565b6000612c538383612c29565b9150826002028217905092915050565b612c6c82611a61565b67ffffffffffffffff811115612c8557612c84611c3d565b5b612c8f82546127b7565b612c9a828285612bd6565b600060209050601f831160018114612ccd5760008415612cbb578287015190505b612cc58582612c47565b865550612d2d565b601f198416612cdb86612ab7565b60005b82811015612d0357848901518255600182019150602085019450602081019050612cde565b86831015612d205784890151612d1c601f891682612c29565b8355505b6001600288020188555050505b505050505050565b7f596f75206d7573742062652061626f766520313820746f20766f746500000000600082015250565b6000612d6b601c83611a6c565b9150612d7682612d35565b602082019050919050565b60006020820190508181036000830152612d9a81612d5e565b905091905056fea2646970667358221220a26f75057cbf6818e5fdbe1b27139519ae3dd45c37d86128942c45a73027676164736f6c63430008110033",
  "linkReferences": {},
  "deployedLinkReferences": {}
}